{
  "contractName": "Hello",
  "abi": [
    {
      "inputs": [
        {
          "internalType": "string",
          "name": "_message",
          "type": "string"
        }
      ],
      "stateMutability": "nonpayable",
      "type": "constructor"
    },
    {
      "anonymous": false,
      "inputs": [
        {
          "indexed": true,
          "internalType": "address",
          "name": "sender",
          "type": "address"
        },
        {
          "indexed": false,
          "internalType": "uint256",
          "name": "tokens",
          "type": "uint256"
        }
      ],
      "name": "Details",
      "type": "event"
    },
    {
      "inputs": [],
      "name": "message",
      "outputs": [
        {
          "internalType": "string",
          "name": "",
          "type": "string"
        }
      ],
      "stateMutability": "view",
      "type": "function"
    },
    {
      "inputs": [],
      "name": "owner",
      "outputs": [
        {
          "internalType": "address",
          "name": "",
          "type": "address"
        }
      ],
      "stateMutability": "view",
      "type": "function"
    },
    {
      "inputs": [],
      "name": "hello",
      "outputs": [
        {
          "internalType": "string",
          "name": "",
          "type": "string"
        }
      ],
      "stateMutability": "view",
      "type": "function"
    },
    {
      "inputs": [
        {
          "internalType": "string",
          "name": "_message",
          "type": "string"
        }
      ],
      "name": "setMessage",
      "outputs": [],
      "stateMutability": "payable",
      "type": "function"
    }
  ],
  "bytecode": "0x60806040523480156200001157600080fd5b5060405162000c0338038062000c038339818101604052810190620000379190620001c6565b80600090805190602001906200004f92919062000098565b5033600160006101000a81548173ffffffffffffffffffffffffffffffffffffffff021916908373ffffffffffffffffffffffffffffffffffffffff160217905550506200039b565b828054620000a690620002ac565b90600052602060002090601f016020900481019282620000ca576000855562000116565b82601f10620000e557805160ff191683800117855562000116565b8280016001018555821562000116579182015b8281111562000115578251825591602001919060010190620000f8565b5b50905062000125919062000129565b5090565b5b80821115620001445760008160009055506001016200012a565b5090565b60006200015f620001598462000240565b62000217565b9050828152602081018484840111156200017e576200017d6200037b565b5b6200018b84828562000276565b509392505050565b600082601f830112620001ab57620001aa62000376565b5b8151620001bd84826020860162000148565b91505092915050565b600060208284031215620001df57620001de62000385565b5b600082015167ffffffffffffffff8111156200020057620001ff62000380565b5b6200020e8482850162000193565b91505092915050565b60006200022362000236565b9050620002318282620002e2565b919050565b6000604051905090565b600067ffffffffffffffff8211156200025e576200025d62000347565b5b62000269826200038a565b9050602081019050919050565b60005b838110156200029657808201518184015260208101905062000279565b83811115620002a6576000848401525b50505050565b60006002820490506001821680620002c557607f821691505b60208210811415620002dc57620002db62000318565b5b50919050565b620002ed826200038a565b810181811067ffffffffffffffff821117156200030f576200030e62000347565b5b80604052505050565b7f4e487b7100000000000000000000000000000000000000000000000000000000600052602260045260246000fd5b7f4e487b7100000000000000000000000000000000000000000000000000000000600052604160045260246000fd5b600080fd5b600080fd5b600080fd5b600080fd5b6000601f19601f8301169050919050565b61085880620003ab6000396000f3fe60806040526004361061003f5760003560e01c806319ff1d2114610044578063368b87721461006f5780638da5cb5b1461008b578063e21f37ce146100b6575b600080fd5b34801561005057600080fd5b506100596100e1565b604051610066919061057d565b60405180910390f35b6100896004803603810190610084919061047c565b610173565b005b34801561009757600080fd5b506100a06102b5565b6040516100ad9190610562565b60405180910390f35b3480156100c257600080fd5b506100cb6102db565b6040516100d8919061057d565b60405180910390f35b6060600080546100f0906106ea565b80601f016020809104026020016040519081016040528092919081815260200182805461011c906106ea565b80156101695780601f1061013e57610100808354040283529160200191610169565b820191906000526020600020905b81548152906001019060200180831161014c57829003601f168201915b5050505050905090565b600160009054906101000a900473ffffffffffffffffffffffffffffffffffffffff1673ffffffffffffffffffffffffffffffffffffffff163373ffffffffffffffffffffffffffffffffffffffff1614610203576040517f08c379a00000000000000000000000000000000000000000000000000000000081526004016101fa906105bf565b60405180910390fd5b662386f26fc1000034101561024d576040517f08c379a00000000000000000000000000000000000000000000000000000000081526004016102449061059f565b60405180910390fd5b8060009080519060200190610263929190610369565b503373ffffffffffffffffffffffffffffffffffffffff167fd3869c3a6f735ad5221809358b18fd2ffe15068f886a1c464c143f65919386e1346040516102aa91906105df565b60405180910390a250565b600160009054906101000a900473ffffffffffffffffffffffffffffffffffffffff1681565b600080546102e8906106ea565b80601f0160208091040260200160405190810160405280929190818152602001828054610314906106ea565b80156103615780601f1061033657610100808354040283529160200191610361565b820191906000526020600020905b81548152906001019060200180831161034457829003601f168201915b505050505081565b828054610375906106ea565b90600052602060002090601f01602090048101928261039757600085556103de565b82601f106103b057805160ff19168380011785556103de565b828001600101855582156103de579182015b828111156103dd5782518255916020019190600101906103c2565b5b5090506103eb91906103ef565b5090565b5b808211156104085760008160009055506001016103f0565b5090565b600061041f61041a8461061f565b6105fa565b90508281526020810184848401111561043b5761043a6107b0565b5b6104468482856106a8565b509392505050565b600082601f830112610463576104626107ab565b5b813561047384826020860161040c565b91505092915050565b600060208284031215610492576104916107ba565b5b600082013567ffffffffffffffff8111156104b0576104af6107b5565b5b6104bc8482850161044e565b91505092915050565b6104ce8161066c565b82525050565b60006104df82610650565b6104e9818561065b565b93506104f98185602086016106b7565b610502816107bf565b840191505092915050565b600061051a60108361065b565b9150610525826107d0565b602082019050919050565b600061053d60208361065b565b9150610548826107f9565b602082019050919050565b61055c8161069e565b82525050565b600060208201905061057760008301846104c5565b92915050565b6000602082019050818103600083015261059781846104d4565b905092915050565b600060208201905081810360008301526105b88161050d565b9050919050565b600060208201905081810360008301526105d881610530565b9050919050565b60006020820190506105f46000830184610553565b92915050565b6000610604610615565b9050610610828261071c565b919050565b6000604051905090565b600067ffffffffffffffff82111561063a5761063961077c565b5b610643826107bf565b9050602081019050919050565b600081519050919050565b600082825260208201905092915050565b60006106778261067e565b9050919050565b600073ffffffffffffffffffffffffffffffffffffffff82169050919050565b6000819050919050565b82818337600083830152505050565b60005b838110156106d55780820151818401526020810190506106ba565b838111156106e4576000848401525b50505050565b6000600282049050600182168061070257607f821691505b602082108114156107165761071561074d565b5b50919050565b610725826107bf565b810181811067ffffffffffffffff821117156107445761074361077c565b5b80604052505050565b7f4e487b7100000000000000000000000000000000000000000000000000000000600052602260045260246000fd5b7f4e487b7100000000000000000000000000000000000000000000000000000000600052604160045260246000fd5b600080fd5b600080fd5b600080fd5b600080fd5b6000601f19601f8301169050919050565b7f4e6f7420456e6f75676820457468657200000000000000000000000000000000600082015250565b7f43616e206f6e6c79206265206d6f646966696564206279206465706c6f79657260008201525056fea2646970667358221220389949936867810873c8c38fd6e37049336c503c22d3187f0fa3473253b7ecd064736f6c63430008060033",
  "immutableReferences": {},
  "source": "//SPDX-License-Identifier: UNLICENSED\r\npragma solidity 0.8.6;\r\n\r\ncontract Hello {\r\n\r\n    string public message;\r\n    address public owner;\r\n\r\n    event Details(address indexed sender, uint tokens);\r\n\r\n    constructor(string memory _message) {\r\n        message = _message;\r\n        owner = msg.sender;\r\n    }\r\n\r\n    function hello() public view returns(string memory) {\r\n        return message;\r\n    }\r\n\r\n    function setMessage(string memory _message) public payable {\r\n        \r\n        //first check if modifier is owner\r\n        require(msg.sender == owner, \"Can only be modified by deployer\");\r\n        \r\n        //then check if price requirement is fulfilled - val >= 0.01 eth\r\n        require(msg.value >= 1e16, \"Not Enough Ether\");\r\n        \r\n        message = _message;\r\n        emit Details(msg.sender, msg.value);\r\n    }\r\n}",
  "sourcePath": "D:/mystuff/blockchain/truffleTest/contracts/Hello.sol",
  "compiler": {
    "name": "solc",
    "version": "0.8.6+commit.11564f7e.Emscripten.clang"
  },
  "schemaVersion": "3.4.1",
  "updatedAt": "2021-07-23T04:43:33.092Z",
  "devdoc": {
    "kind": "dev",
    "methods": {},
    "version": 1
  },
  "userdoc": {
    "kind": "user",
    "methods": {},
    "version": 1
  }
}