{
  "contractName": "Hello",
  "abi": [
    {
      "inputs": [
        {
          "internalType": "string",
          "name": "_message",
          "type": "string"
        }
      ],
      "stateMutability": "nonpayable",
      "type": "constructor"
    },
    {
      "inputs": [],
      "name": "message",
      "outputs": [
        {
          "internalType": "string",
          "name": "",
          "type": "string"
        }
      ],
      "stateMutability": "view",
      "type": "function",
      "constant": true
    },
    {
      "inputs": [],
      "name": "owner",
      "outputs": [
        {
          "internalType": "address",
          "name": "",
          "type": "address"
        }
      ],
      "stateMutability": "view",
      "type": "function",
      "constant": true
    },
    {
      "inputs": [],
      "name": "hello",
      "outputs": [
        {
          "internalType": "string",
          "name": "",
          "type": "string"
        }
      ],
      "stateMutability": "view",
      "type": "function",
      "constant": true
    },
    {
      "inputs": [
        {
          "internalType": "string",
          "name": "_message",
          "type": "string"
        }
      ],
      "name": "setMessage",
      "outputs": [],
      "stateMutability": "payable",
      "type": "function",
      "payable": true
    }
  ],
  "bytecode": "0x60806040523480156200001157600080fd5b5060405162000b8138038062000b818339818101604052810190620000379190620001c6565b80600090805190602001906200004f92919062000098565b5033600160006101000a81548173ffffffffffffffffffffffffffffffffffffffff021916908373ffffffffffffffffffffffffffffffffffffffff160217905550506200039b565b828054620000a690620002ac565b90600052602060002090601f016020900481019282620000ca576000855562000116565b82601f10620000e557805160ff191683800117855562000116565b8280016001018555821562000116579182015b8281111562000115578251825591602001919060010190620000f8565b5b50905062000125919062000129565b5090565b5b80821115620001445760008160009055506001016200012a565b5090565b60006200015f620001598462000240565b62000217565b9050828152602081018484840111156200017e576200017d6200037b565b5b6200018b84828562000276565b509392505050565b600082601f830112620001ab57620001aa62000376565b5b8151620001bd84826020860162000148565b91505092915050565b600060208284031215620001df57620001de62000385565b5b600082015167ffffffffffffffff8111156200020057620001ff62000380565b5b6200020e8482850162000193565b91505092915050565b60006200022362000236565b9050620002318282620002e2565b919050565b6000604051905090565b600067ffffffffffffffff8211156200025e576200025d62000347565b5b62000269826200038a565b9050602081019050919050565b60005b838110156200029657808201518184015260208101905062000279565b83811115620002a6576000848401525b50505050565b60006002820490506001821680620002c557607f821691505b60208210811415620002dc57620002db62000318565b5b50919050565b620002ed826200038a565b810181811067ffffffffffffffff821117156200030f576200030e62000347565b5b80604052505050565b7f4e487b7100000000000000000000000000000000000000000000000000000000600052602260045260246000fd5b7f4e487b7100000000000000000000000000000000000000000000000000000000600052604160045260246000fd5b600080fd5b600080fd5b600080fd5b600080fd5b6000601f19601f8301169050919050565b6107d680620003ab6000396000f3fe60806040526004361061003f5760003560e01c806319ff1d2114610044578063368b87721461006f5780638da5cb5b1461008b578063e21f37ce146100b6575b600080fd5b34801561005057600080fd5b506100596100e1565b6040516100669190610520565b60405180910390f35b6100896004803603810190610084919061042e565b610173565b005b34801561009757600080fd5b506100a0610267565b6040516100ad9190610505565b60405180910390f35b3480156100c257600080fd5b506100cb61028d565b6040516100d89190610520565b60405180910390f35b6060600080546100f090610668565b80601f016020809104026020016040519081016040528092919081815260200182805461011c90610668565b80156101695780601f1061013e57610100808354040283529160200191610169565b820191906000526020600020905b81548152906001019060200180831161014c57829003601f168201915b5050505050905090565b600160009054906101000a900473ffffffffffffffffffffffffffffffffffffffff1673ffffffffffffffffffffffffffffffffffffffff163373ffffffffffffffffffffffffffffffffffffffff1614610203576040517f08c379a00000000000000000000000000000000000000000000000000000000081526004016101fa90610562565b60405180910390fd5b670de0b6b3a7640000341161024d576040517f08c379a000000000000000000000000000000000000000000000000000000000815260040161024490610542565b60405180910390fd5b806000908051906020019061026392919061031b565b5050565b600160009054906101000a900473ffffffffffffffffffffffffffffffffffffffff1681565b6000805461029a90610668565b80601f01602080910402602001604051908101604052809291908181526020018280546102c690610668565b80156103135780601f106102e857610100808354040283529160200191610313565b820191906000526020600020905b8154815290600101906020018083116102f657829003601f168201915b505050505081565b82805461032790610668565b90600052602060002090601f0160209004810192826103495760008555610390565b82601f1061036257805160ff1916838001178555610390565b82800160010185558215610390579182015b8281111561038f578251825591602001919060010190610374565b5b50905061039d91906103a1565b5090565b5b808211156103ba5760008160009055506001016103a2565b5090565b60006103d16103cc846105a7565b610582565b9050828152602081018484840111156103ed576103ec61072e565b5b6103f8848285610626565b509392505050565b600082601f83011261041557610414610729565b5b81356104258482602086016103be565b91505092915050565b60006020828403121561044457610443610738565b5b600082013567ffffffffffffffff81111561046257610461610733565b5b61046e84828501610400565b91505092915050565b610480816105f4565b82525050565b6000610491826105d8565b61049b81856105e3565b93506104ab818560208601610635565b6104b48161073d565b840191505092915050565b60006104cc6010836105e3565b91506104d78261074e565b602082019050919050565b60006104ef6020836105e3565b91506104fa82610777565b602082019050919050565b600060208201905061051a6000830184610477565b92915050565b6000602082019050818103600083015261053a8184610486565b905092915050565b6000602082019050818103600083015261055b816104bf565b9050919050565b6000602082019050818103600083015261057b816104e2565b9050919050565b600061058c61059d565b9050610598828261069a565b919050565b6000604051905090565b600067ffffffffffffffff8211156105c2576105c16106fa565b5b6105cb8261073d565b9050602081019050919050565b600081519050919050565b600082825260208201905092915050565b60006105ff82610606565b9050919050565b600073ffffffffffffffffffffffffffffffffffffffff82169050919050565b82818337600083830152505050565b60005b83811015610653578082015181840152602081019050610638565b83811115610662576000848401525b50505050565b6000600282049050600182168061068057607f821691505b60208210811415610694576106936106cb565b5b50919050565b6106a38261073d565b810181811067ffffffffffffffff821117156106c2576106c16106fa565b5b80604052505050565b7f4e487b7100000000000000000000000000000000000000000000000000000000600052602260045260246000fd5b7f4e487b7100000000000000000000000000000000000000000000000000000000600052604160045260246000fd5b600080fd5b600080fd5b600080fd5b600080fd5b6000601f19601f8301169050919050565b7f4e6f7420456e6f75676820457468657200000000000000000000000000000000600082015250565b7f43616e206f6e6c79206265206d6f646966696564206d79206465706c6f79657260008201525056fea2646970667358221220ddf0b8d6f1d2edb5c5ba87f40489ca2d4a1ea6157b91c3ec6fe7b246b4078e8364736f6c63430008060033",
  "immutableReferences": {},
  "source": "//SPDX-License-Identifier: UNLICENSED\r\npragma solidity 0.8.6;\r\n\r\ncontract Hello {\r\n\r\n    string public message;\r\n    address public owner;\r\n\r\n    constructor(string memory _message) {\r\n        message = _message;\r\n        owner = msg.sender;\r\n    }\r\n\r\n    function hello() public view returns(string memory) {\r\n        return message;\r\n    }\r\n\r\n    function setMessage(string memory _message) public payable {\r\n        //first check if modifier is owner\r\n        require(msg.sender == owner, \"Can only be modified my deployer\");\r\n        \r\n        //then check if price requirement is fulfilled\r\n        require(msg.value > 1 ether, \"Not Enough Ether\");\r\n        \r\n        message = _message;\r\n    }\r\n}",
  "sourcePath": "D:/mystuff/blockchain/truffleTest/contracts/Hello.sol",
  "compiler": {
    "name": "solc",
    "version": "0.8.6+commit.11564f7e.Emscripten.clang"
  },
  "schemaVersion": "3.4.1",
  "updatedAt": "2021-07-22T06:18:43.693Z",
  "networkType": "ethereum",
  "devdoc": {
    "kind": "dev",
    "methods": {},
    "version": 1
  },
  "userdoc": {
    "kind": "user",
    "methods": {},
    "version": 1
  }
}